:020000040800F2
:1000000090220020CD0100080F050008B30200086F
:100010000B05000885030008A30B00080000000082
:10002000000000000000000000000000950600082D
:10003000C5030008000000003B020008810700081B
:10004000E7010008E7010008E7010008E7010008F0
:10005000E7010008E7010008E7010008E7010008E0
:10006000E7010008E7010008E7010008E7010008D0
:10007000E7010008E7010008E7010008E7010008C0
:10008000E7010008E7010008E7010008E7010008B0
:10009000E7010008E7010008E7010008E7010008A0
:1000A000E7010008E7010008E7010008E701000890
:1000B000E7010008E7010008E7010008E701000880
:1000C000E7010008E7010008E7010008E701000870
:1000D000E7010008F1070008990800084109000835
:1000E000E7010008E7010008E7010008E701000850
:1000F000E7010008E7010008E7010008E701000840
:10010000E7010008E7010008E7010008E70100082F
:10011000E7010008E7010008E7010008E70100081F
:10012000E7010008E7010008E7010008E70100080F
:1001300000F002F800F03AF80AA090E8000C8244BF
:100140008344AAF10107DA4501D100F02FF8AFF29C
:10015000090EBAE80F0013F0010F18BFFB1A43F0A5
:1001600001031847382B0000582B0000103A24BF19
:1001700078C878C1FAD8520724BF30C830C144BF0C
:1001800004680C607047000000230024002500264E
:10019000103A28BF78C1FBD8520728BF30C148BFEA
:1001A0000B6070471FB51FBD10B510BD00F0A9F85A
:1001B0001146FFF7F7FF00F0DEF800F0C7F803B4D0
:1001C000FFF7F2FF03BC00F0CFF8000009488047BA
:1001D00009480047FEE7FEE7FEE7FEE7FEE7FEE729
:1001E000FEE7FEE7FEE7FEE704480549054A064B41
:1001F000704700009107000831010008901C0020A2
:1002000090220020901E0020901E0020EFF310800E
:1002100072B6704780F310887047324A1368012B1A
:1002200004D04FF0010313602F4A10602F4A116071
:100230002F484FF0805101607047EFF3108272B683
:100240002848016891B14FF000010160264801681B
:1002500029B1EFF3098121E9F00F0068016023491A
:1002600009680968B1E8F00F81F3098882F3108802
:100270004EF0040E70471D4908601B494FF0000006
:10028000086018494FF0010008601A484FF47F01D8
:10029000D0F8002041EA0201016015484FF080517A
:1002A000016015480068006880F3088861B662B68E
:1002B00070471EF0040F14BFEFF30880EFF30980BE
:1002C00020E9F00F40F804ED14BF80F3088880F3B4
:1002D000098800B501F02CF95DF804EB4EF0040E2E
:1002E000704700000C0100200401002008010020DC
:1002F00004ED00E020ED00E008ED00E070477047FD
:100300007047754600F02CF8AE4605006946534626
:1003100020F00700854618B020B5FFF765FFBDE85F
:1003200020404FF000064FF000074FF000084FF05C
:10033000000B21F00701AC46ACE8C009ACE8C009ED
:10034000ACE8C009ACE8C0098D46704710B504465A
:10035000AFF300802046BDE81040FFF730BF00003B
:10036000004870472C1C002001491820ABBEFEE756
:1003700026000200704710B5FFF748FF02F012FB9D
:10038000002010BD00BFFEE708B50020009001214D
:10039000042000F005F94FF48070ADF80000102043
:1003A0008DF8030003208DF802006946044800F030
:1003B0000AF800224FF48071014800F093F808BD5C
:1003C0000008014070472DE9F04102460025002653
:1003D000002000230024002791F803C00CF00F0533
:1003E00091F803C00CF0100CBCF1000F03D091F891
:1003F00002C04CEA050591F800C0BCF1000F31D0F5
:10040000146800202BE04FF0010C0CFA00F3B1F857
:1004100000C00CEA03069E4220D183004FF00F0C6F
:100420000CFA03F7BC4305FA03FC4CEA040491F808
:1004300003C0BCF1280F06D14FF0010C0CFA00FCF0
:10044000C2F814C00AE091F803C0BCF1480F05D10E
:100450004FF0010C0CFA00FCC2F810C0401C082838
:10046000D1D31460B1F800C0BCF1FF0F34DD546883
:1004700000202EE000F1080C4FF0010808FA0CF300
:10048000B1F800C00CEA03069E4221D183004FF070
:100490000F0C0CFA03F7BC4305FA03FC4CEA040406
:1004A00091F803C0BCF1280F05D100F1080C08FA3F
:1004B0000CF8C2F8148091F803C0BCF1480F07D1C2
:1004C00000F1080C4FF0010808FA0CF8C2F810808F
:1004D000401C0828CED35460BDE8F08141617047CC
:1004E000016170470AB1016100E0416170470BE0B2
:1004F00000F0E2FD4FF4FA7001F0E8FE00F0D4FDE8
:100500004FF4FA7001F0E2FEF2E700BFFEE7704739
:1005100070B5002100230F22C47804B3154C246861
:1005200004F4E064C4F5E064210AC1F10403CA40A4
:10053000447804FA03F184781440214309010E4CF5
:100540000678A155047804F01F050124AC40057815
:100550006D11AD0005F1E025C5F8004109E0047812
:1005600004F01F050124AC40044D0678761145F8CF
:10057000264070BD0CED00E000E400E080E100E00A
:1005800029B1064AD2690243044BDA6104E0034A06
:10059000D2698243014BDA617047000000100240CB
:1005A00029B1064A92690243044B9A6104E0034A66
:1005B00092698243014B9A6170470000001002402B
:1005C00030B500210022002400232D4D6D6805F078
:1005D0000C0121B1042905D0082923D105E0294DBA
:1005E000056022E0274D05601FE0254D6D6805F48C
:1005F0007012234D6D6805F48034022505EB92429C
:100600001CB9214D554305600BE01D4D6D6805F487
:1006100000351DB11C4D5543056002E0194D554391
:10062000056002E0174D056000BF00BF144D6D6806
:1006300005F0F0010909154D6B5C0568DD4045606A
:100640000F4D6D6805F4E061090A104D6B5C45685B
:10065000DD4085600A4D6D6805F46051C90A0B4D97
:100660006B5C4568DD40C560054D6D6805F4404133
:10067000890B074D6B5CC568B5FBF3F5056130BDB3
:100680000010024000127A0000093D000C0000201A
:100690001C000020704710B500F002F810BD0000EB
:1006A0000CB50020019000903348006840F4803081
:1006B0003149086000BF3048006800F40030009005
:1006C0000198401C0190009818B90198B0F5A06FEE
:1006D000F1D12948006800F4003010B101200090E9
:1006E00001E0002000900098012843D123480068D1
:1006F00040F01000214908600846006820F003001F
:1007000008600846006840F0020008601A48406827
:10071000194948600846406848600846406840F407
:10072000806048600846406820F47C1048600846B5
:10073000406840F4E81048600846006840F0807067
:10074000086000BF0C48006800F000700028F9D075
:100750000948406820F0030007494860084640689F
:1007600040F00200486000BF0348406800F00C0001
:100770000828F9D10CBD0000001002400020024002
:1007800010B500F0FBFF01F043FE01F00DF810BDC5
:1007900010B51348006840F0010011490860084690
:1007A0004068104908400E494860084600680E49F4
:1007B00008400B4908600846006820F48020086063
:1007C0000846406820F4FE0048604FF41F0088602F
:1007D000FFF761FF4FF000600449086010BD0000A2
:1007E000001002400000FFF8FFFFF6FE08ED00E0F9
:1007F00070B540F22551214800F00FF9C0B11F48F3
:1008000000F0C6F9C5B21E490988481CC11700EBA3
:1008100091518912A0EB81218CB21A480088844240
:1008200005D019481649098845541548048000BF69
:1008300040F22771114800F0F0F8F0B11348008839
:1008400013490988884212D01248104A1288815CE4
:100850000A4800F0A2F90D490988481CC11700EBAD
:1008600091518912A0EB8121084A118005E00022F4
:1008700040F22771014800F0FAF870BD00380140DD
:100880002400002026000020141500202200002053
:10089000200000201411002070B540F2255121489D
:1008A00000F0BBF8C0B11F4800F072F9C5B21E4994
:1008B0000988481CC11700EB91518912A0EB8121D6
:1008C0008CB21A480088844205D019481649098814
:1008D00045541548048000BF40F22771114800F0CC
:1008E0009CF8F0B11348008813490988884212D057
:1008F0001248104A1288815C0A4800F04EF90D49EE
:100900000988481CC11700EB91518912A0EB812185
:10091000084A118005E0002240F22771014800F0EA
:10092000A6F870BD004400402400002026000020EE
:1009300014150020220000202000002014110020A7
:1009400070B540F22551214800F067F8C0B11F484A
:1009500000F01EF9C5B21E490988481CC11700EBFA
:1009600091518912A0EB81218CB21A4800888442EF
:1009700005D019481649098845541548048000BF18
:1009800040F22771114800F048F8F0B11348008890
:1009900013490988884212D01248104A1288815C93
:1009A0000A4800F0FAF80D490988481CC11700EB05
:1009B00091518912A0EB8121084A118005E00022A3
:1009C00040F22771014800F052F870BD0048004025
:1009D0002400002026000020141500202200002002
:1009E000200000201411002021B1828942F400521D
:1009F000828104E082894DF6FF731A40828170473C
:100A000002460020B1F5007F00D100BF13880B40E3
:100A10000BB1012000E00020704770B502460024B1
:100A200000230025002040F66A16B14200D100BF25
:100A3000C1F3421501F01F03012606FA03F3012D4D
:100A400002D19689334006E0022D02D1168A334046
:100A500001E0968A33400C12012606FA04F4168847
:100A6000344013B10CB1012000E0002070BDF0B59E
:100A70000346002400260025002040F66A17B942EC
:100A800000D100BF1846C1F3421401F01F06012730
:100A900007FA06F5012C01D10C3004E0022C01D13B
:100AA000103000E014301AB107682F43076002E0ED
:100AB0000768AF430760F0BD2DE9F04786B00546F3
:100AC0000E460024A24600BFA1460027B08900B10F
:100AD00000BF2F462C8A4CF6FF700440F088044378
:100AE0002C82AC894EF6F3100440B088318908435B
:100AF000718908430443AC81AC8A4FF6FF4004403F
:100B0000B0890443AC8201A8FFF75AFD1F48874211
:100B100002D1DDF810A001E0DDF80CA0A88900F4F6
:100B2000004040B10AEBCA0000EB0A1031684900EE
:100B3000B0FBF1F807E00AEBCA0000EB0A103168DD
:100B40008900B0FBF1F86420B8FBF0F00401200943
:100B5000642101FB1089A88900F4004040B13220D3
:100B600000EBC900B0FBF1F000F00700044308E01F
:100B7000322000EB09106421B0FBF1F000F00F000F
:100B800004432C8106B0BDE8F08700000038014026
:100B900001468888C0F308007047C1F308028280CC
:100BA000704700BFFEE70000014609B9002070470A
:100BB000C8B220B1C8B20E4A105C401CF7E701F47D
:100BC0007F4028B10A48C1F30722805C0930EEE774
:100BD00001F47F0028B10648C1F30742805C113060
:100BE000E5E7034800EB116000781930DFE700000B
:100BF000602B000803490868884201D00120704733
:100C00000020FCE7F00000202DE9FC5F04468B4645
:100C100015461E46DDE90C9ADDE90E7804F1140054
:100C20004060006000BF1C346560A660C4F80C9092
:100C3000C4F810A02321D4E9030200F03FFFD4E957
:100C4000033C63441A1F0F4BD4E9010100F070FD0F
:100C50002060A77667760020E061C4F82080C4F8A1
:100C60002480606120766065A0651C3C009023466E
:100C7000054A2146019004F1440001F04BFC00209C
:100C8000BDE8FC9F35210008812300082DE9F047CD
:100C900004460E4617469846DDF8209084F80990E1
:100CA000607A20F001006072E66127620020A06295
:100CB000C4F82480002506E004F1140101EBC5000E
:100CC00000F004FE6D1C012DF6DBBDE8F08710B5C9
:100CD0000246002001460EE002F1140303EBC100BE
:100CE000D0E900436360D0E90034236040600060D5
:100CF00000BF481C01460129EEDB10BD1CB520A039
:100D000000F0AAFD142000904FF4807300222249C5
:100D1000019022A001F0E5F92149086014201F216B
:100D20004FF480730022CDE900101E491EA001F08F
:100D3000D8F91E4908601A48006801F0E9FA1C4910
:100D400008600846006818B11AA000F085FD02E0AE
:100D50001EA000F081FD1548006801F0D9FA144981
:100D600008600846006818B11EA000F075FD02E09A
:100D700022A000F071FD27A000F06EFD00201CBD38
:100D8000BFAACABCD6B4D0D0B3CCD0F2A3A1A3A181
:100D9000A3A1A3A10D0A0000D129000872756E005D
:100DA00000000020EF0400084C4F5700080000200E
:100DB0000400002072756ECFDFB3CCB4B4BDA8CAF6
:100DC000A7B0DCA3A1A3A1A3A10D0A0072756ECFE9
:100DD000DFB3CCB4B4BDA8B3C9B9A6A3A1A3A1A3E2
:100DE000A10D0A004C4F57CFDFB3CCB4B4BDA8CA95
:100DF000A7B0DCA3A1A3A1A3A10D0A004C4F57CF1C
:100E0000DFB3CCB4B4BDA8B3C9B9A6A3A1A3A1A3B1
:100E1000A10D0A00CBF9D3D0CFDFB3CCB4B4BDA8B9
:100E2000CDEAB1CFA3A1A3A1A3A10D0A00000000A8
:100E300010B5044600F06EF9FFF760FF10BD10B565
:100E4000FFF7E4F901F0AEFD002010BD30B51A4CFB
:100E5000436824681919884215D04B889BB9174BF1
:100E60001B6899420FD0164B1B688B4201D1144B63
:100E700018604B684360104B1B68C31A0E4D4C68DA
:100E80002D682C44A3600C4C836824681A19824294
:100E900011D053887BB90A4B1B68834201D1084BA0
:100EA0001A6043685360044B1B68D31A024D4468B0
:100EB0002D682C44A36030BD780000207C00002009
:100EC000800000202DE9F04F85B00D469C46DDE9FD
:100ED0000F740E9B04F04008B8F1000F02D0DFF849
:100EE000688101E0DFF86481CDF8008004F010082B
:100EF000B8F1000F01D024F0010404F00108B8F1AA
:100F0000000F02D04FF0300801E04FF02008C24639
:100F1000002604F00208B8F1000F11D0002A02DA0E
:100F20002D2652420CE004F00408B8F1000F01D065
:100F30002B2605E004F00808B8F1000F00D02026A9
:100F4000002142B94FF0300B8846491C0DF10409CD
:100F500009F808B01DE01AE0E146B9F10A0F08D11E
:100F60004FF00A0BB2FBFBFE0BFB1E28B2FBFBF2A1
:100F700002E002F00F08120900BFDDF8009019F836
:100F800008B08846491C0DF1040909F808B0002A88
:100F9000E2D1B94200DD0F46DB1B04F01108B8F1C5
:100FA000000F10D116B1002B00DD5B1E06E0A84239
:100FB00003D84FF0200880F80080401CB3F10008EF
:100FC000A3F10103F3DC26B1A84201D806705B1E31
:100FD000401C04F01008B8F1000F0AD104E0A84248
:100FE00001D880F800A0401CB3F10008A3F1010370
:100FF000F5DC06E0A84203D84FF0300880F8008006
:10100000401CB8467F1E8845F4DC08E0A84205D89D
:101010000DF1040818F8018080F80080401CB1F13F
:101020000008A1F10101F1DC06E0A84203D84FF06D
:10103000200880F80080401CB3F10008A3F10103F0
:10104000F3DC05B0BDE8F08F712C0008602C0008BF
:1010500010B520210148FFF743FA10BD000C0140F4
:1010600010B502210148FFF73BFA10BD000C01400A
:1010700008B501210820FFF793FA2320ADF80000FE
:1010800001208DF8020010208DF803006946054804
:10109000FFF799F900F008F8FFF7E2FFFFF7D8FF34
:1010A00008BD0000000C014010B501210148FFF708
:1010B00017FA10BD000C014010B501210148FFF7DF
:1010C0000DFA10BD000C01401CB514200A214FF48C
:1010D00000730022CDE90010044905A001F001F8D9
:1010E0000446204601F014F91CBD0000310E000832
:1010F0006D61696E0000000010B5044C02E02068CC
:101100008047241D02488442F9D310BD882C000872
:10111000942C000810B5044C02E020688047241D80
:1011200002488442F9D310BD942C0008982C000882
:1011300070B505460A480668284600F02EF80446B1
:1011400064B10748006818B10548006800F00AF863
:101150004321204600F04AF801480460304670BD43
:101160007400002070B504460025A07E08B9681EF2
:1011700070BDA07E401EA076A07E08B10020F7E7DB
:10118000E06A18B12046E16A884705460DB1A81DFE
:1011900008B9002020832846EAE72DE9F0410646F9
:1011A00001F08EF808B100F09BF8082000F0ECFC8C
:1011B00005466C6810E0A4F10C0708223146384659
:1011C00000F097FE38B901F07BF808B100F098F80C
:1011D0003846BDE8F0812468281D8442EBD101F037
:1011E0006FF808B100F08CF80020F2E770B5044603
:1011F0000E460025A07D00F0100088B9606A58B145
:101200002046616A8847054635B12A46214616A020
:1012100000F022FB284670BDE08A40F01000E0821A
:10122000A07D00F0080030B1207E00F0080010B171
:101230006FF00600EFE7A06A28B131462046A26AA7
:101240009047054603E040F60F70304020830DB113
:10125000A81D30B9208B40F008002083A07E401CE0
:10126000A0762846D7E70000546F20696E6974693C
:10127000616C697A65206465766963653A257320D7
:101280006661696C65642E20546865206572726FB2
:101290007220636F64652069732025640A00000072
:1012A0002DE9F04104460D4616461F46A07E30B992
:1012B0004FF0FF3000F0A8FD0020BDE8F081606B2A
:1012C00038B13B46324629462046D4F834C0E04780
:1012D000F3E76FF0050000F097FD0020EDE7000058
:1012E00010B5FEF793FF044604480088401C00B286
:1012F000024908802046FEF78DFF10BDE000002067
:1013000010B5FEF783FF04460B480088401E00B26C
:10131000094908800846B0F90000002807DC0020D1
:1013200008802046FEF776FF00F06AFC02E02046C7
:10133000FEF770FF10BD0000E000002070B505460C
:1013400005B970BD1D480068854203D31C4800687C
:10135000854200D3F5E7A5F10C044FF0FF311948A1
:1013600000F018FD608818B12088B0F5F55F08D04E
:1013700015A000F071FA23886288214619A000F0B8
:101380006BFA002060804FF4F550208021480068FF
:10139000844201D21F480460084960680968611AE4
:1013A000401A1D490968081A1B4908602046FFF7C2
:1013B0004DFD044800F0D1FC00BFC2E778000020DA
:1013C0007C0000200C1B0020746F20667265652075
:1013D0006120626164206461746120626C6F636B80
:1013E0003A0A00006D656D3A203078253038782C47
:1013F000207573656420666C61673A2025642C2033
:101400006D6167696320636F64653A2030782530C9
:1014100034780A00800000208800002000487047CF
:1014200014010020004870471411002070B52648B0
:1014300000684FF47A72B0FBF2F1481EB0F1807F81
:1014400000D31BE0481E4FF0E022506150170F22DE
:10145000002804DB13071C0E1C4B1C5406E013076A
:101460001D0E1B4B00F00F04241F1D5500BF002054
:101470004FF0E02290610720106100BFFFF73CFEB3
:1014800014A0FFF755FEFFF7CDFF0446FFF7C6FF98
:101490000546214600F05CFD4FF4A06101F0070213
:1014A0000B4B0C3B18684FF6FF0318400B4B0343E4
:1014B00043EA0220064B0C3B186000BF01F00AFB18
:1014C000FEF762FF70BD00005400002000E400E061
:1014D00018ED00E075617274310000000000FA053B
:1014E00010B50446FFF7FCFE19E020780A280AD15F
:1014F0000D210E48FFF751FB00BF80210B48FFF77D
:101500007FFA0028F9D014F8011B0848FFF745FBC3
:1015100000BF80210548FFF773FA0028F9D0207832
:101520000028E2D1FFF7ECFE10BD000000380140BA
:1015300070B505462C1D2E48006838B128462C4948
:1015400009688847064606B970BD00BF29A0E16B4F
:1015500000F082F92BA0216A00F07EF92DA0616ACB
:1015600000F07AF92FA0A16A00F076F931A0E16AC3
:1015700000F072F933A0216800F06EF935A06168BF
:1015800000F06AF937A0A16800F066F939A0E168B7
:1015900000F062F93BA0216900F05EF93DA06169AD
:1015A00000F05AF93FA0A16900F056F941A0E169A5
:1015B00000F052F943A0216B00F04EF945A0616B99
:1015C00000F04AF947A0A16B00F046F9287800F036
:1015D000040038B100F074FE0646314645A000F024
:1015E0003BF902E04BA000F037F900BFFEE7000036
:1015F000100100207073723A203078253038780A54
:10160000000000007230303A203078253038780AF7
:10161000000000007230313A203078253038780AE6
:10162000000000007230323A203078253038780AD5
:10163000000000007230333A203078253038780AC4
:10164000000000007230343A203078253038780AB3
:10165000000000007230353A203078253038780AA2
:10166000000000007230363A203078253038780A91
:10167000000000007230373A203078253038780A80
:10168000000000007230383A203078253038780A6F
:10169000000000007230393A203078253038780A5E
:1016A000000000007231303A203078253038780A56
:1016B000000000007231313A203078253038780A45
:1016C000000000007231323A203078253038780A34
:1016D00000000000206C723A203078253038780AFB
:1016E000000000002070633A203078253038780AF6
:1016F0000000000068617264206661756C74206F80
:101700006E207468726561643A2025730D0A0D0AB3
:101710000000000068617264206661756C74206F5F
:101720006E2068616E646C65720D0A0D0A0000001F
:10173000F0B504460D461646301D20F0070040382F
:101740000146002203E00C4F41F82270521C102A7F
:10175000F9D30D624FF0000CC1F824C0C1F828C0C5
:10176000C1F82CC0C1F830C04B638C634FF0807C53
:10177000C1F83CC0F0BD0000EFBEADDE10B5FEF715
:1017800045FD044604480078401C03490870204683
:10179000FEF740FD10BD00006C00002001480078FD
:1017A000704700006C00002010B5FEF72FFD0446C6
:1017B00004480078401E034908702046FEF72AFDC1
:1017C00010BD00006C00002070B504462068A0F138
:1017D0001405284600F056FD002070BD2DE9F041AB
:1017E00005460C469046204600F0A8FDB8F1000FD3
:1017F00003D0B8F1010F23D105E004F1140128460C
:1018000000F07CF81CE02E680FE0A6F1140794F8B5
:10181000350097F83510884206DA04F1140107F113
:10182000140000F06BF802E03668AE42EDD100BF64
:10183000AE4204D104F11401284600F05FF800BF65
:1018400000BF0020BDE8F08110B5044604F114008B
:1018500000F036F8002010BD0FB438B505A8009090
:101860007F211548009B049A00F000FF04467F2C5E
:1018700000D97F241148006818B90F48FFF730FEDF
:1018800015E00E480068058B0C480068008B40F09E
:1018900040000A49096808832346074A002107488F
:1018A0000068FFF7FDFC05480068058300BF0020C5
:1018B000009038BC5DF814FB8C1A002074000020E6
:1018C00040600060704740600060704740600060AA
:1018D00070470268516002680A60016048607047A2
:1018E0000268516002680A600160486070470268DF
:1018F000516002680A600160486070474268116088
:1019000042684A6041600860704701460868884242
:1019100001D1012070470020FCE701460868884299
:1019200001D1012070470020FCE7D0E9002151607F
:10193000D0E900121160406000607047D0E90021DA
:101940005160D0E9001211604060006070470000F3
:101950002DE9F041054615B90020BDE8F081E81CED
:1019600020F003054E480068854201D90020F4E7C5
:101970000C2D00D20C254FF0FF314A4800F00AFA36
:101980004948006849490968461A7EE047480068A6
:1019900084196088002874D106F10C006168081A67
:1019A000A8426ED306F10C006168091A05F118000F
:1019B000814230D306F10C0000EB05083B4800687B
:1019C00000EB08074FF4F5503880002078806068FD
:1019D0007860BE60C4F80480012060803048796877
:1019E00000680C30814205D03049786809680844A5
:1019F000C0F808802E48016805F10C0008442C4905
:101A000008602C4800680968884219D22848006894
:101A10002849086014E00120608024496068096852
:101A2000611A401A2249096808442149086021487E
:101A300000680968884203D21D4800681D49086093
:101A40004FF4F550208018480068844212D107E016
:101A5000154800684068154909680844124908603B
:101A600011480068408828B10F4800681249096889
:101A70008842EDD10B4800F070F904F10C006CE7DE
:101A8000FFE70A4800683044466805480068401B84
:101A9000B0423FF67BAF034800F05FF900205CE7FF
:101AA000840000200C1B0020800000207800002013
:101AB000880000208C0000207C000020F0B50C463F
:101AC0000546E6B2042A15D300F0030797B901468C
:101AD00046EA062343EA034304E008C108C108C1FB
:101AE00008C1103A102AF8D201E008C1121F042AD6
:101AF000FBD20D4601E005F8016B171EA2F10102B1
:101B0000F9D1F0BD2DE9F04105460F46284600F019
:101B10003BF80646F068FFF71BFF044614B90020A7
:101B2000BDE8F08125720020607208223946204607
:101B300000F0F3F9FEF76AFB804604F10C01301D5A
:101B4000FFF7C7FE4046FEF765FB2046E8E770B5A5
:101B50000446FEF75BFB054604F10C00FFF7E5FECB
:101B60002846FEF757FB2046FFF7E8FB70BD70B52F
:101B70000446FEF74BFB054604F10C00FFF7D5FECB
:101B80002846FEF747FB70BD024600210AE00748E1
:101B900000EB01100078904203D1044800EB0110E3
:101BA0007047491C0529F2DB0020F9E7900000206E
:101BB0002DE9F04104460D4616462846FFF7E4FF9E
:101BC000074645F08000207208223146204600F08A
:101BD000A4F9FEF71BFB804604F10C01381DFFF74A
:101BE00078FE4046FEF716FBBDE8F0810146087A14
:101BF00000F0800008B1012070470020FCE70000E1
:101C00002DE9F041FEF702FB07461B48008868BB40
:101C10001A480068FEF7C8FF461E194850F83600FB
:101C2000A0F114041748006884421BD016490E70B6
:101C30001448056804601548007848B904F11C018F
:101C400005F11C00FEF7E9FA3846FEF7E3FA0CE06E
:101C500004F11C0105F11C00FEF7DFFA3846FEF71F
:101C6000D9FA02E03846FEF7D5FA02E03846FEF728
:101C7000D1FABDE8F0810000E0000020EC00002077
:101C80002C1B0020E4000020E80000206C00002055
:101C900070B50446FEF7BAFA054614F8340F20F082
:101CA0000F0040F0010020706278343C0A4B03EBD7
:101CB000C20004F114014268116042684A60416048
:101CC000086000BF0549A06B096808430349086024
:101CD0002846FEF79FFA70BD2C1B0020EC00002068
:101CE00070B50446FEF792FA054604F11400D0E9F7
:101CF00000215160D0E9001211604060006000BF17
:101D000094F83510094A02EBC1000168814201D103
:101D1000012100E0002129B10548A16B006888433A
:101D2000034908602846FEF775FA70BD2C1B002099
:101D3000EC0000202DE9F04104460D4616461F46F2
:101D40002A4601212046FFF733FF2046FFF77CFD9E
:101D5000A68367720020BDE8F08170B504460025B7
:101D6000FEF754FA064604F11400FFF7CEFD28B939
:101D700004F11400FFF728FD012502E0A08B401CB0
:101D8000A0833046FEF746FA012D01D1FFF738FF58
:101D9000002070BD73B50546FEF738FA0646A88BDD
:101DA000002806DDA88B401EA8833046FEF732FAD5
:101DB00028E0019828B93046FEF72CFA6FF00100B0
:101DC0007CBD00F07DFA0446002020636A7A21463B
:101DD00005F11400FFF702FD0198002809DD01AAB2
:101DE000002104F1440000F069FB04F1440000F01C
:101DF000A9FB3046FEF70EFAFFF702FF206B08B191
:101E0000206BDDE70020DBE770B50446FFF7C6FC7A
:101E100010B10648046070BD00F052FA054615B9CD
:101E200002480460F7E72C6300BFF4E7700000206D
:101E300008B509A0FFF710FD0AA0FFF70DFD12A0DD
:101E4000032300221946009012A0FFF705FD19A0F8
:101E5000FFF702FD08BD00000A205C207C202F0A4D
:101E6000000000002D205254202D2020202020543E
:101E70006872656164204F7065726174696E672075
:101E800053797374656D0A004A756C2032342032C0
:101E900030323400202F207C205C20202020202580
:101EA000642E25642E2564206275696C6420257378
:101EB0000A0000002032303036202D2032303138F8
:101EC00020436F7079726967687420627920727438
:101ED0002D746872656164207465616D0A0000008C
:101EE00001460A4600E0521C10780028FBD1501A27
:101EF000704730B5034600200BE011F8015B1C78F9
:101F0000641B64B2201E02D113F8015B05B902E024
:101F1000521E002AF1D100BF30BD70B50346A2B1F8
:101F200018460C4600BF14F8016B00F8016B3EB96F
:101F300002E0002500F8015B551E2A1EF9D102E0DF
:101F4000551E2A1EEFD100BF00BF184670BD00000D
:101F50002DE9F04105460E46E81C20F0030726F067
:101F60000308B8F1180F09D9A8F11800B84205D331
:101F7000A8EB070018381E49086006E032462946DB
:101F80001CA0FFF769FCBDE8F081294807600468E0
:101F90004FF4F5502080164800680C306060002037
:101FA000A06060802249606809680844214908608F
:101FB0004FF4F5500968088001201E4909684880DF
:101FC0000B4800680C301B490968486008480068E5
:101FD0000C301849096888600023012216A11848AE
:101FE000FFF7A8FE124800681649086000BFCAE75C
:101FF000840000206D656D20696E69742C20657207
:10200000726F7220626567696E20616464726573C5
:102010007320307825782C20616E6420656E6420F2
:102020006164647265737320307825780A0000005B
:10203000780000207C0000206865617000000000CE
:102040000C1B00208000002010B500200B490880E8
:10205000002405E00A4901EBC400FFF734FC641CCE
:10206000202CF7DB1F200749087000200649086074
:10207000064908600648FFF726FC10BDE000002076
:102080002C1B0020E8000020E4000020EC000020D1
:10209000F000002070B508480068FEF785FD451E79
:1020A000064850F83500A0F114040548046004F116
:1020B0001C00FEF7E0F870BDEC0000202C1B002097
:1020C000E400002010B5002405E0044901EBC40041
:1020D000FFF7FCFB641C002CF7D010BDF8000020BB
:1020E00070472DE9FF5F06460F4690461D46DDE925
:1020F0000EAB31460020FFF705FD8146B9F1000F18
:1021000003D1002004B0BDE8F09F2846FFF720FC73
:10211000044624B94846FFF71AFD0020F2E743467B
:102120003A46314648468DE8300CFEF76DFD48468C
:10213000E8E7000070B512480468FEF767F8054646
:102140002046FFF7CDFD042084F8340004F144005C
:1021500000F0D0F92046FFF749FD012805D1206F96
:1021600018B92046FFF703FD04E004F11401054807
:10217000FFF7B6FB2846FEF74DF8FFF741FD70BDAF
:10218000E4000020F000002001E000F001F8FCE78E
:1021900070B537E0FEF73AF80546FEF72BFD18B3A9
:1021A0001B480068A0F1140404F11400D0E90021D8
:1021B0005160D0E9001211604060006000BFFFF77D
:1021C0008FF8206F10B12046216F88472046FFF717
:1021D0000DFD012805D1FFF793F82846FEF71AF800
:1021E00070BDFFF78DF803E02846FEF713F8F7E718
:1021F0002846FEF70FF8A06AFFF7A0F82046FFF781
:10220000A6FC00BFFEF7F6FC0028C3D100BFE7E73D
:10221000F00000201FB520201F21C200074BCDE990
:102220000032CDE902100023054A06A1074800F05C
:102230000FF8064800F06CF81FBD00008C19002054
:10224000892100087469646C65000000141900207D
:102250002DE9FF5F05460C4616461F46DDE910AB2B
:10226000DDE90E89224600212846FFF7A1FC3B4606
:102270003246214628468DE8000FFEF7C5FC04B023
:10228000BDE8F09F70B5044694F8340000F00F00EC
:10229000022802D04FF0FF3070BDFDF7B7FF0546B2
:1022A00004F11400FFF74AFB04F1440000F0C6F902
:1022B0002846FDF7AFFF2046FFF7EAFC0020EBE7DA
:1022C0000148006870470000E400002031B5FDF7C8
:1022D0009DFF05460D480468204600F02FF86A4629
:1022E000002104F1440000F0E9F804F1440000F09A
:1022F00029F92846FDF78EFFFFF782FC206B801C32
:1023000008B900202063002038BD0000E400002050
:1023100010B504463434A07860706178012088409C
:102320006060022004F834092046FFF7ABFFFFF796
:10233000C7FF08B1FFF764FC002010BD70B504466C
:1023400094F8340000F00F00012802D04FF0FF3065
:1023500070BDFDF75BFF054694F8340020F00F00D8
:1023600040F0020084F834002046FFF7B9FC04F185
:10237000440000F063F92846FDF74CFF0020E7E732
:1023800070B5044625466FF00100286305F114007E
:10239000FFF7D4FA2846FFF77BFCFFF731FC70BD4E
:1023A00070B5FDF733FF05461448046894F834000F
:1023B00000F00F0001281CD1D4E90510814218D08B
:1023C00004F11400FFF7BAFA94F835200C4B03EB34
:1023D000C20004F114014268116042684A60416021
:1023E000086000BF2846FDF715FFFFF709FC002035
:1023F00070BD2846FDF70EFF0020F9E7E40000203D
:102400002C1B002001480068704700006800002075
:1024100010B50A480068401C08490860FFF750FFE3
:102420000446206C401E2064206C18B9E06B2064C8
:10243000FFF7B6FF00F004F810BD000068000020B0
:1024400070B5FFF7DFFF0546FDF7E0FE064628E022
:1024500019480068A0F11404A06A281A6FF000411E
:1024600088421DD22046FEF732FCD4E90710884787
:10247000FFF7C8FF0546607A00F0020058B1607AA5
:1024800000F0010038B1607A20F00100607220464F
:1024900000F058F805E0607A20F00100607200E07A
:1024A00004E00548FFF739FA0028D1D000BF3046D4
:1024B000FDF7B0FE70BD0000F8000020034649B1F2
:1024C000012904D0022908D0032910D10AE0586A52
:1024D00010600CE01068586209E0587A20F00200A1
:1024E000587204E0587A40F00200587200BF00BFF2
:1024F0000020704770B50446FDF788FE054620466B
:10250000FEF7E5FB2846FDF785FE2046FFF72FFB8B
:10251000002070BD2DE9F84307460C4615461E46BF
:10252000DDE90889224609213846FFF741FB434689
:10253000324629463846CDF80090FEF7A7FBBDE8A5
:10254000F88300002DE9F8430546FDF75FFE80465D
:102550002846FEF7BCFB687A20F00100687240460E
:10256000FDF758FEFFF74EFF696A0844A862FDF7C1
:102570004DFE80462F4F009700242AE019E05DF8B9
:1025800024201168142202EBC402881A826AAB6A02
:10259000D21A00D108E0826AAB6AD21A6FF0004307
:1025A0009A4200D20CE000BF5DF8240000684DF8AC
:1025B00024005DF8240007EBC40149688842DED19D
:1025C00000BF2CB15DF824000830611C4DF82100DB
:1025D000641C002CD2D018480068401C16490860C2
:1025E0000846066805F114010098FFF780F90224F7
:1025F00012E006F0030060B9C4F1010305F1140212
:1026000002EBC301C4F101025DF82200FFF76FF98C
:1026100000E003E0B608641C012CEAD900BF687A28
:1026200040F0010068724046FDF7F4FD0020BDE86F
:10263000F8830000F80000200001002070B5044677
:10264000607A00F0010010B94FF0FF3070BDFDF767
:10265000DDFD05462046FEF73AFB2846FDF7DAFD8C
:10266000607A20F0010060720020EFE72DE9FF4F53
:1026700089B0804644460A984044461E464504D2E6
:102680004FF0FF36A6EB08000A906FE10B98007838
:10269000252806D0B44202D80B9800782070641C1C
:1026A00061E1002526E00B98401C0B900B98007808
:1026B0002D2802D145F010051CE00B9800782B283E
:1026C00002D145F0040515E00B980078202802D1CE
:1026D00045F008050EE00B980078232802D145F05C
:1026E000200507E00B980078302802D145F001055D
:1026F00000E000E0D7E700BF4FF0FF370B9800780D
:1027000030380A2804D20BA800F07AF907460EE008
:102710000B9800782A280AD10B98401C0B900C9833
:1027200080C80C90002F02DA7F4245F010054FF070
:10273000FF390B9800782E281CD10B98401C0B9069
:102740000B98007830380A2804D20BA800F058F90A
:1027500081460AE00B9800782A2806D10B98401C85
:102760000B900C9850F8049B0C90B9F1000F01DA13
:102770004FF00009002004900B980078682803D0DF
:102780000B9800786C2805D10B98007804900B9872
:10279000401C0B900A2005900B9800786F2875D08C
:1027A0000CDC632813D004DC252870D058286FD1A6
:1027B0008DE064286DD06928F9D18FE070286AD047
:1027C000732825D0752878D07828F0D182E005F0DC
:1027D000100040B904E0B44201D820202070641CED
:1027E000781E071EF7DC0C9810F8041B0C90C8B27A
:1027F0000790B44201D807982070641C04E0B442EA
:1028000001D820202070641C781E071EF7DCAAE087
:102810000C98006806900C98001D0C90069808B95A
:102820005AA006900698FFF75BFB8346B9F1000FAC
:1028300002DDCB4500DDCB4605F0100048B904E0D1
:10284000B44201D820202070641C38467F1E5845B1
:10285000F6DC002008900BE0B44202D8069800781D
:102860002070641C0698401C06900898401C089034
:1028700008985845F0DB04E0B44201D820202070CD
:10288000641C38467F1E5845F6DC6CE01CE015E001
:1028900028E022E0FFE7781C10B9082745F0010581
:1028A000CDE9007902950C9804C8102331460C90AC
:1028B0002046FEF707FB044655E012E0B44201D87B
:1028C00025202070641C4EE0082005901DE045F096
:1028D000400500BF1020059017E000BF45F002053D
:1028E00000BF12E0B44201D825202070641C0B9870
:1028F000007830B1B44202D80B9800782070641C84
:1029000002E00B98401E0B902DE000BF04986C284D
:1029100007D10C9850F804AB0C9005F00200B8B148
:1029200016E0049868280BD10C9830F8041B1FFAA5
:1029300081FA0C9005F0020050B10FFA8AFA07E014
:102940000C9850F804AB0C9005F0020000B100BFE9
:10295000CDE900790295524631462046059BFEF7A7
:10296000B1FA044600BF0B98401C0B900B980078FE
:1029700000287FF48BAEB44201D8207001E0002023
:102980003070A4EB08000DB0BDE8F08F284E554C18
:102990004C2900000020704700207047002070473D
:1029A0000020704710B5FDF731FCFEF73FFDFFF743
:1029B0003FFAFFF787FBFFF747FBFEF785FBFFF7C3
:1029C0008FFBFFF727FCFFF765FB002010BD000021
:1029D00013E000224FF480710848FDF783FD4FF4A7
:1029E000FA70FFF773FC00224FF480710348FDF783
:1029F00079FD4FF4FA70FFF769FCEAE7000801403F
:102A00000146002009E00B685A1C0A601A7800EBA6
:102A1000800302EB4302A2F130000A681278303AD8
:102A20000A2AF0D3704710B500F002F8002010BD5C
:102A300000B587B0012144F20500FDF7B1FD4FF468
:102A40000070ADF8180003208DF81A0018208DF8DA
:102A50001B0006A91D48FDF7B6FC4FF48060ADF8D9
:102A6000180004208DF81B0006A91848FDF7ABFCE0
:102A70004FF4E13002900020ADF80C00ADF80E00EC
:102A8000ADF81000ADF814000C20ADF8120002A94A
:102A90000F48FEF711F801210D48FDF7A5FF0122AF
:102AA00040F225510A48FDF7E2FF25208DF8040089
:102AB00000208DF805008DF8060001208DF8070034
:102AC00001A8FDF725FD012007B000BD0008014069
:102AD0000038014000B585B001210520FDF760FDFB
:102AE00001214804FDF74CFD0420ADF8100003203F
:102AF0008DF8120018208DF8130004A91648FDF770
:102B000062FC0820ADF8100004208DF8130004A921
:102B10001148FDF758FC4FF4E13000900020ADF86B
:102B20000400ADF80600ADF80800ADF80C000C206C
:102B3000ADF80A0069460948FDF7BEFF01210748C4
:102B4000FDF752FF012240F225510448FDF78FFFA7
:102B5000012005B000BD0000000801400044004015
:102B6000000001000200010003000100020001005A
:102B70000400010002000100030001000200010046
:102B80000500010002000100030001000200010035
:102B90000400010002000100030001000200010026
:102BA0000600010002000100030001000200010014
:102BB0000400010002000100030001000200010006
:102BC00005000100020001000300010002000100F5
:102BD00004000100020001000300010002000100E6
:102BE00007000100020001000300010002000100D3
:102BF00004000100020001000300010002000100C6
:102C000005000100020001000300010002000100B4
:102C100004000100020001000300010002000100A5
:102C20000600010002000100030001000200010093
:102C30000400010002000100030001000200010085
:102C40000500010002000100030001000200010074
:102C50000400010002000100030001000200010065
:102C60003031323334353637383961626364656602
:102C700000303132333435363738394142434445F8
:102C800046000000A129000899290008272A000809
:102C900071100008952900089D290008BC2C000827
:102CA00000000020140100006C010008D02D000875
:102CB000140100207C2100008801000800000000B1
:102CC00000000000000000000000000001020304FA
:102CD00001020304060708090204060800000000B8
:102CE00000000000000000000004000000000004DC
:102CF00000000000000400000038014000440040D3
:102D000000480040004C004000500040000000001F
:102D100000A24A04000000000000000001020304B9
:102D20000607080900000000000000000000000085
:102D30000000000000000000000000000000000093
:102D40000000000000000000000000000000000083
:102D50009400002094000020780000000100000092
:102D6000A4000020A40000202000000004000000B7
:102D7000B4000020B4000020300000000800000073
:102D8000C4000020C4000020400000000900000032
:102D9000D4000020D40000202C000000000000001F
:102DA0000000000000000000000000000000000023
:102DB0000000000000000000000000000000000013
:102DC0000000000000000000000000000000000003
:0400000508000131BD
:00000001FF
